{
  "_format": "hh-sol-artifact-1",
  "contractName": "ArbBot",
  "sourceName": "contracts/ArbBot.sol",
  "abi": [
    {
      "inputs": [
        {
          "internalType": "contract ISwapRouter",
          "name": "_swapRouter",
          "type": "address"
        },
        {
          "internalType": "contract IUniswapV3Factory",
          "name": "_factory",
          "type": "address"
        },
        {
          "internalType": "address",
          "name": "_token0",
          "type": "address"
        },
        {
          "internalType": "address",
          "name": "_token1",
          "type": "address"
        },
        {
          "internalType": "uint24",
          "name": "_feeTier1",
          "type": "uint24"
        },
        {
          "internalType": "uint24",
          "name": "_feeTier2",
          "type": "uint24"
        }
      ],
      "stateMutability": "nonpayable",
      "type": "constructor"
    },
    {
      "inputs": [
        {
          "internalType": "uint256",
          "name": "token0In",
          "type": "uint256"
        }
      ],
      "name": "executeArbitrage",
      "outputs": [
        {
          "internalType": "uint256",
          "name": "",
          "type": "uint256"
        }
      ],
      "stateMutability": "nonpayable",
      "type": "function"
    },
    {
      "inputs": [],
      "name": "factory",
      "outputs": [
        {
          "internalType": "contract IUniswapV3Factory",
          "name": "",
          "type": "address"
        }
      ],
      "stateMutability": "view",
      "type": "function"
    },
    {
      "inputs": [],
      "name": "feeTier1",
      "outputs": [
        {
          "internalType": "uint24",
          "name": "",
          "type": "uint24"
        }
      ],
      "stateMutability": "view",
      "type": "function"
    },
    {
      "inputs": [],
      "name": "feeTier2",
      "outputs": [
        {
          "internalType": "uint24",
          "name": "",
          "type": "uint24"
        }
      ],
      "stateMutability": "view",
      "type": "function"
    },
    {
      "inputs": [
        {
          "internalType": "uint24",
          "name": "fee",
          "type": "uint24"
        }
      ],
      "name": "getPrice",
      "outputs": [
        {
          "internalType": "uint256",
          "name": "price",
          "type": "uint256"
        }
      ],
      "stateMutability": "view",
      "type": "function"
    },
    {
      "inputs": [],
      "name": "swapRouter",
      "outputs": [
        {
          "internalType": "contract ISwapRouter",
          "name": "",
          "type": "address"
        }
      ],
      "stateMutability": "view",
      "type": "function"
    },
    {
      "inputs": [],
      "name": "token0",
      "outputs": [
        {
          "internalType": "address",
          "name": "",
          "type": "address"
        }
      ],
      "stateMutability": "view",
      "type": "function"
    },
    {
      "inputs": [],
      "name": "token1",
      "outputs": [
        {
          "internalType": "address",
          "name": "",
          "type": "address"
        }
      ],
      "stateMutability": "view",
      "type": "function"
    }
  ],
  "bytecode": "0x60806040523480156200001157600080fd5b5060405162001962380380620019628339818101604052810190620000379190620002b8565b856000806101000a81548173ffffffffffffffffffffffffffffffffffffffff021916908373ffffffffffffffffffffffffffffffffffffffff16021790555083600260006101000a81548173ffffffffffffffffffffffffffffffffffffffff021916908373ffffffffffffffffffffffffffffffffffffffff16021790555082600360006101000a81548173ffffffffffffffffffffffffffffffffffffffff021916908373ffffffffffffffffffffffffffffffffffffffff16021790555081600360146101000a81548162ffffff021916908362ffffff16021790555080600360176101000a81548162ffffff021916908362ffffff16021790555084600160006101000a81548173ffffffffffffffffffffffffffffffffffffffff021916908373ffffffffffffffffffffffffffffffffffffffff16021790555050505050505062000354565b600080fd5b600073ffffffffffffffffffffffffffffffffffffffff82169050919050565b6000620001b68262000189565b9050919050565b6000620001ca82620001a9565b9050919050565b620001dc81620001bd565b8114620001e857600080fd5b50565b600081519050620001fc81620001d1565b92915050565b60006200020f82620001a9565b9050919050565b620002218162000202565b81146200022d57600080fd5b50565b600081519050620002418162000216565b92915050565b6200025281620001a9565b81146200025e57600080fd5b50565b600081519050620002728162000247565b92915050565b600062ffffff82169050919050565b620002928162000278565b81146200029e57600080fd5b50565b600081519050620002b28162000287565b92915050565b60008060008060008060c08789031215620002d857620002d762000184565b5b6000620002e889828a01620001eb565b9650506020620002fb89828a0162000230565b95505060406200030e89828a0162000261565b94505060606200032189828a0162000261565b93505060806200033489828a01620002a1565b92505060a06200034789828a01620002a1565b9150509295509295509295565b6115fe80620003646000396000f3fe608060405234801561001057600080fd5b50600436106100885760003560e01c8063c31c9c071161005b578063c31c9c0714610117578063c45a015514610135578063d21220a714610153578063f7c7724f1461017157610088565b80630dfe16811461008d578063423dd0dd146100ab57806362d1ccef146100db578063a23e7f64146100f9575b600080fd5b6100956101a1565b6040516100a29190610d1d565b60405180910390f35b6100c560048036038101906100c09190610d78565b6101c7565b6040516100d29190610dbe565b60405180910390f35b6100e3610381565b6040516100f09190610de8565b60405180910390f35b610101610396565b60405161010e9190610de8565b60405180910390f35b61011f6103ab565b60405161012c9190610e62565b60405180910390f35b61013d6103cf565b60405161014a9190610e9e565b60405180910390f35b61015b6103f5565b6040516101689190610d1d565b60405180910390f35b61018b60048036038101906101869190610ee5565b61041b565b6040516101989190610dbe565b60405180910390f35b600260009054906101000a900473ffffffffffffffffffffffffffffffffffffffff1681565b600080600160009054906101000a900473ffffffffffffffffffffffffffffffffffffffff1673ffffffffffffffffffffffffffffffffffffffff16631698ee82600260009054906101000a900473ffffffffffffffffffffffffffffffffffffffff16600360009054906101000a900473ffffffffffffffffffffffffffffffffffffffff16866040518463ffffffff1660e01b815260040161026d93929190610f12565b602060405180830381865afa15801561028a573d6000803e3d6000fd5b505050506040513d601f19601f820116820180604052508101906102ae9190610f75565b905060008173ffffffffffffffffffffffffffffffffffffffff16633850c7bd6040518163ffffffff1660e01b815260040160e060405180830381865afa1580156102fd573d6000803e3d6000fd5b505050506040513d601f19601f8201168201806040525081019061032191906110b2565b505050505050905060c0670de0b6b3a76400008273ffffffffffffffffffffffffffffffffffffffff168373ffffffffffffffffffffffffffffffffffffffff1661036c9190611183565b6103769190611183565b901c92505050919050565b600360149054906101000a900462ffffff1681565b600360179054906101000a900462ffffff1681565b60008054906101000a900473ffffffffffffffffffffffffffffffffffffffff1681565b600160009054906101000a900473ffffffffffffffffffffffffffffffffffffffff1681565b600360009054906101000a900473ffffffffffffffffffffffffffffffffffffffff1681565b6000806104278361044b565b905060006104348261073d565b9050838161044291906111c5565b92505050919050565b600081600260009054906101000a900473ffffffffffffffffffffffffffffffffffffffff1673ffffffffffffffffffffffffffffffffffffffff1663dd62ed3e33306040518363ffffffff1660e01b81526004016104ab9291906111f9565b602060405180830381865afa1580156104c8573d6000803e3d6000fd5b505050506040513d601f19601f820116820180604052508101906104ec9190611237565b1161052c576040517f08c379a0000000000000000000000000000000000000000000000000000000008152600401610523906112c1565b60405180910390fd5b61055a600260009054906101000a900473ffffffffffffffffffffffffffffffffffffffff16333085610a2f565b6105a7600260009054906101000a900473ffffffffffffffffffffffffffffffffffffffff1660008054906101000a900473ffffffffffffffffffffffffffffffffffffffff1684610b87565b6000604051806101000160405280600260009054906101000a900473ffffffffffffffffffffffffffffffffffffffff1673ffffffffffffffffffffffffffffffffffffffff168152602001600360009054906101000a900473ffffffffffffffffffffffffffffffffffffffff1673ffffffffffffffffffffffffffffffffffffffff168152602001600360149054906101000a900462ffffff1662ffffff1681526020013373ffffffffffffffffffffffffffffffffffffffff16815260200142815260200184815260200160008152602001600073ffffffffffffffffffffffffffffffffffffffff16815250905060008054906101000a900473ffffffffffffffffffffffffffffffffffffffff1673ffffffffffffffffffffffffffffffffffffffff1663414bf389826040518263ffffffff1660e01b81526004016106f291906113bf565b6020604051808303816000875af1158015610711573d6000803e3d6000fd5b505050506040513d601f19601f820116820180604052508101906107359190611237565b915050919050565b600081600360009054906101000a900473ffffffffffffffffffffffffffffffffffffffff1673ffffffffffffffffffffffffffffffffffffffff1663dd62ed3e33306040518363ffffffff1660e01b815260040161079d9291906111f9565b602060405180830381865afa1580156107ba573d6000803e3d6000fd5b505050506040513d601f19601f820116820180604052508101906107de9190611237565b1161081e576040517f08c379a0000000000000000000000000000000000000000000000000000000008152600401610815906112c1565b60405180910390fd5b61084c600360009054906101000a900473ffffffffffffffffffffffffffffffffffffffff16333085610a2f565b610899600260009054906101000a900473ffffffffffffffffffffffffffffffffffffffff1660008054906101000a900473ffffffffffffffffffffffffffffffffffffffff1684610b87565b6000604051806101000160405280600360009054906101000a900473ffffffffffffffffffffffffffffffffffffffff1673ffffffffffffffffffffffffffffffffffffffff168152602001600260009054906101000a900473ffffffffffffffffffffffffffffffffffffffff1673ffffffffffffffffffffffffffffffffffffffff168152602001600360179054906101000a900462ffffff1662ffffff1681526020013373ffffffffffffffffffffffffffffffffffffffff16815260200142815260200184815260200160008152602001600073ffffffffffffffffffffffffffffffffffffffff16815250905060008054906101000a900473ffffffffffffffffffffffffffffffffffffffff1673ffffffffffffffffffffffffffffffffffffffff1663414bf389826040518263ffffffff1660e01b81526004016109e491906113bf565b6020604051808303816000875af1158015610a03573d6000803e3d6000fd5b505050506040513d601f19601f82011682018060405250810190610a279190611237565b915050919050565b6000808573ffffffffffffffffffffffffffffffffffffffff166323b872dd60e01b868686604051602401610a66939291906113db565b604051602081830303815290604052907bffffffffffffffffffffffffffffffffffffffffffffffffffffffff19166020820180517bffffffffffffffffffffffffffffffffffffffffffffffffffffffff8381831617835250505050604051610ad09190611483565b6000604051808303816000865af19150503d8060008114610b0d576040519150601f19603f3d011682016040523d82523d6000602084013e610b12565b606091505b5091509150818015610b405750600081511480610b3f575080806020019051810190610b3e919061149a565b5b5b610b7f576040517f08c379a0000000000000000000000000000000000000000000000000000000008152600401610b7690611513565b60405180910390fd5b505050505050565b6000808473ffffffffffffffffffffffffffffffffffffffff1663095ea7b360e01b8585604051602401610bbc929190611533565b604051602081830303815290604052907bffffffffffffffffffffffffffffffffffffffffffffffffffffffff19166020820180517bffffffffffffffffffffffffffffffffffffffffffffffffffffffff8381831617835250505050604051610c269190611483565b6000604051808303816000865af19150503d8060008114610c63576040519150601f19603f3d011682016040523d82523d6000602084013e610c68565b606091505b5091509150818015610c965750600081511480610c95575080806020019051810190610c94919061149a565b5b5b610cd5576040517f08c379a0000000000000000000000000000000000000000000000000000000008152600401610ccc906115a8565b60405180910390fd5b5050505050565b600073ffffffffffffffffffffffffffffffffffffffff82169050919050565b6000610d0782610cdc565b9050919050565b610d1781610cfc565b82525050565b6000602082019050610d326000830184610d0e565b92915050565b600080fd5b600062ffffff82169050919050565b610d5581610d3d565b8114610d6057600080fd5b50565b600081359050610d7281610d4c565b92915050565b600060208284031215610d8e57610d8d610d38565b5b6000610d9c84828501610d63565b91505092915050565b6000819050919050565b610db881610da5565b82525050565b6000602082019050610dd36000830184610daf565b92915050565b610de281610d3d565b82525050565b6000602082019050610dfd6000830184610dd9565b92915050565b6000819050919050565b6000610e28610e23610e1e84610cdc565b610e03565b610cdc565b9050919050565b6000610e3a82610e0d565b9050919050565b6000610e4c82610e2f565b9050919050565b610e5c81610e41565b82525050565b6000602082019050610e776000830184610e53565b92915050565b6000610e8882610e2f565b9050919050565b610e9881610e7d565b82525050565b6000602082019050610eb36000830184610e8f565b92915050565b610ec281610da5565b8114610ecd57600080fd5b50565b600081359050610edf81610eb9565b92915050565b600060208284031215610efb57610efa610d38565b5b6000610f0984828501610ed0565b91505092915050565b6000606082019050610f276000830186610d0e565b610f346020830185610d0e565b610f416040830184610dd9565b949350505050565b610f5281610cfc565b8114610f5d57600080fd5b50565b600081519050610f6f81610f49565b92915050565b600060208284031215610f8b57610f8a610d38565b5b6000610f9984828501610f60565b91505092915050565b610fab81610cdc565b8114610fb657600080fd5b50565b600081519050610fc881610fa2565b92915050565b60008160020b9050919050565b610fe481610fce565b8114610fef57600080fd5b50565b60008151905061100181610fdb565b92915050565b600061ffff82169050919050565b61101e81611007565b811461102957600080fd5b50565b60008151905061103b81611015565b92915050565b600060ff82169050919050565b61105781611041565b811461106257600080fd5b50565b6000815190506110748161104e565b92915050565b60008115159050919050565b61108f8161107a565b811461109a57600080fd5b50565b6000815190506110ac81611086565b92915050565b600080600080600080600060e0888a0312156110d1576110d0610d38565b5b60006110df8a828b01610fb9565b97505060206110f08a828b01610ff2565b96505060406111018a828b0161102c565b95505060606111128a828b0161102c565b94505060806111238a828b0161102c565b93505060a06111348a828b01611065565b92505060c06111458a828b0161109d565b91505092959891949750929550565b7f4e487b7100000000000000000000000000000000000000000000000000000000600052601160045260246000fd5b600061118e82610da5565b915061119983610da5565b92508282026111a781610da5565b915082820484148315176111be576111bd611154565b5b5092915050565b60006111d082610da5565b91506111db83610da5565b92508282039050818111156111f3576111f2611154565b5b92915050565b600060408201905061120e6000830185610d0e565b61121b6020830184610d0e565b9392505050565b60008151905061123181610eb9565b92915050565b60006020828403121561124d5761124c610d38565b5b600061125b84828501611222565b91505092915050565b600082825260208201905092915050565b7f4e6f742073756669696369656e742066756e647320617070726f766564000000600082015250565b60006112ab601d83611264565b91506112b682611275565b602082019050919050565b600060208201905081810360008301526112da8161129e565b9050919050565b6112ea81610cfc565b82525050565b6112f981610d3d565b82525050565b61130881610da5565b82525050565b61131781610cdc565b82525050565b6101008201600082015161133460008501826112e1565b50602082015161134760208501826112e1565b50604082015161135a60408501826112f0565b50606082015161136d60608501826112e1565b50608082015161138060808501826112ff565b5060a082015161139360a08501826112ff565b5060c08201516113a660c08501826112ff565b5060e08201516113b960e085018261130e565b50505050565b6000610100820190506113d5600083018461131d565b92915050565b60006060820190506113f06000830186610d0e565b6113fd6020830185610d0e565b61140a6040830184610daf565b949350505050565b600081519050919050565b600081905092915050565b60005b8381101561144657808201518184015260208101905061142b565b60008484015250505050565b600061145d82611412565b611467818561141d565b9350611477818560208601611428565b80840191505092915050565b600061148f8284611452565b915081905092915050565b6000602082840312156114b0576114af610d38565b5b60006114be8482850161109d565b91505092915050565b7f5354460000000000000000000000000000000000000000000000000000000000600082015250565b60006114fd600383611264565b9150611508826114c7565b602082019050919050565b6000602082019050818103600083015261152c816114f0565b9050919050565b60006040820190506115486000830185610d0e565b6115556020830184610daf565b9392505050565b7f5341000000000000000000000000000000000000000000000000000000000000600082015250565b6000611592600283611264565b915061159d8261155c565b602082019050919050565b600060208201905081810360008301526115c181611585565b905091905056fea2646970667358221220204bdfee6ae55f0494bf92e2dd2c06604a8ac399efc44079aea6a7836d2bcfac64736f6c63430008140033",
  "linkReferences": {},
  "deployedLinkReferences": {}
}